{
  "_format": "hh-sol-artifact-1",
  "contractName": "WavePortal2",
  "sourceName": "contracts/WavePortal2.sol",
  "abi": [
    {
      "inputs": [],
      "stateMutability": "nonpayable",
      "type": "constructor"
    },
    {
      "anonymous": false,
      "inputs": [
        {
          "indexed": true,
          "internalType": "address",
          "name": "_user",
          "type": "address"
        },
        {
          "indexed": false,
          "internalType": "uint256",
          "name": "_pointsEarned",
          "type": "uint256"
        },
        {
          "indexed": false,
          "internalType": "uint256",
          "name": "_pointsTotal",
          "type": "uint256"
        }
      ],
      "name": "NewPoints",
      "type": "event"
    },
    {
      "anonymous": false,
      "inputs": [
        {
          "indexed": true,
          "internalType": "address",
          "name": "_from",
          "type": "address"
        },
        {
          "indexed": false,
          "internalType": "uint256",
          "name": "_timestamp",
          "type": "uint256"
        },
        {
          "indexed": false,
          "internalType": "string",
          "name": "_message",
          "type": "string"
        }
      ],
      "name": "NewWave",
      "type": "event"
    },
    {
      "inputs": [],
      "name": "getAllWaves",
      "outputs": [
        {
          "components": [
            {
              "internalType": "address",
              "name": "userAddress",
              "type": "address"
            },
            {
              "internalType": "uint256",
              "name": "timestamp",
              "type": "uint256"
            },
            {
              "internalType": "string",
              "name": "message",
              "type": "string"
            }
          ],
          "internalType": "struct WavePortal2.WaveLog[]",
          "name": "",
          "type": "tuple[]"
        }
      ],
      "stateMutability": "view",
      "type": "function"
    },
    {
      "inputs": [
        {
          "internalType": "address",
          "name": "addr",
          "type": "address"
        }
      ],
      "name": "getPointsForAddress",
      "outputs": [
        {
          "internalType": "uint256",
          "name": "",
          "type": "uint256"
        }
      ],
      "stateMutability": "view",
      "type": "function"
    },
    {
      "inputs": [],
      "name": "getTotalWaves",
      "outputs": [
        {
          "internalType": "uint256",
          "name": "",
          "type": "uint256"
        }
      ],
      "stateMutability": "view",
      "type": "function"
    },
    {
      "inputs": [
        {
          "internalType": "address",
          "name": "addr",
          "type": "address"
        }
      ],
      "name": "getWavesForAddress",
      "outputs": [
        {
          "components": [
            {
              "internalType": "address",
              "name": "userAddress",
              "type": "address"
            },
            {
              "internalType": "uint256",
              "name": "timestamp",
              "type": "uint256"
            },
            {
              "internalType": "string",
              "name": "message",
              "type": "string"
            }
          ],
          "internalType": "struct WavePortal2.WaveLog[]",
          "name": "",
          "type": "tuple[]"
        }
      ],
      "stateMutability": "view",
      "type": "function"
    },
    {
      "inputs": [
        {
          "internalType": "string",
          "name": "_message",
          "type": "string"
        }
      ],
      "name": "wave",
      "outputs": [],
      "stateMutability": "nonpayable",
      "type": "function"
    }
  ],
  "bytecode": "0x60806040523480156200001157600080fd5b5062000041604051806060016040528060268152602001620015de602691396200004760201b620009151760201c565b620001db565b620000e7816040516024016200005e919062000154565b6040516020818303038152906040527f41304fac000000000000000000000000000000000000000000000000000000007bffffffffffffffffffffffffffffffffffffffffffffffffffffffff19166020820180517bffffffffffffffffffffffffffffffffffffffffffffffffffffffff8381831617835250505050620000ea60201b60201c565b50565b60008151905060006a636f6e736f6c652e6c6f679050602083016000808483855afa5050505050565b6000620001208262000178565b6200012c818562000183565b93506200013e81856020860162000194565b6200014981620001ca565b840191505092915050565b6000602082019050818103600083015262000170818462000113565b905092915050565b600081519050919050565b600082825260208201905092915050565b60005b83811015620001b457808201518184015260208101905062000197565b83811115620001c4576000848401525b50505050565b6000601f19601f8301169050919050565b6113f380620001eb6000396000f3fe608060405234801561001057600080fd5b50600436106100575760003560e01c806302f818911461005c578063449d46c01461008c5780639a2cdc08146100a8578063bd43a908146100c6578063d7dae55b146100e4575b600080fd5b61007660048036038101906100719190610cd1565b610114565b6040516100839190610fea565b60405180910390f35b6100a660048036038101906100a19190610cfa565b6101dc565b005b6100b06105e3565b6040516100bd9190610fea565b60405180910390f35b6100ce610634565b6040516100db9190610ed1565b60405180910390f35b6100fe60048036038101906100f99190610cd1565b610785565b60405161010b9190610ed1565b60405180910390f35b60006101956040518060400160405280601981526020017f416464726573732025732068617320256420706f696e7473210000000000000081525083600160008673ffffffffffffffffffffffffffffffffffffffff1673ffffffffffffffffffffffffffffffffffffffff168152602001908152602001600020546109ae565b600160008373ffffffffffffffffffffffffffffffffffffffff1673ffffffffffffffffffffffffffffffffffffffff168152602001908152602001600020549050919050565b600060405180606001604052803373ffffffffffffffffffffffffffffffffffffffff168152602001428152602001838152509050600260003373ffffffffffffffffffffffffffffffffffffffff1673ffffffffffffffffffffffffffffffffffffffff16815260200190815260200160002081908060018154018082558091505060019003906000526020600020906003020160009091909190915060008201518160000160006101000a81548173ffffffffffffffffffffffffffffffffffffffff021916908373ffffffffffffffffffffffffffffffffffffffff1602179055506020820151816001015560408201518160020190805190602001906102e7929190610bb1565b505050600081908060018154018082558091505060019003906000526020600020906003020160009091909190915060008201518160000160006101000a81548173ffffffffffffffffffffffffffffffffffffffff021916908373ffffffffffffffffffffffffffffffffffffffff160217905550602082015181600101556040820151816002019080519060200190610383929190610bb1565b5050503373ffffffffffffffffffffffffffffffffffffffff167f5f7e16dc676677766a70e9c5628aa6c54ddb8b6e5188e2ae1e1f17f1ffbea71642846040516103ce929190611005565b60405180910390a26000600260003373ffffffffffffffffffffffffffffffffffffffff1673ffffffffffffffffffffffffffffffffffffffff1681526020019081526020016000208054905090506000808054905090506000600a8284426104379190611147565b6104419190611147565b61044b919061126e565b141561059d5760018060003373ffffffffffffffffffffffffffffffffffffffff1673ffffffffffffffffffffffffffffffffffffffff16815260200190815260200160002060008282546104a091906110f1565b925050819055503373ffffffffffffffffffffffffffffffffffffffff167f22eb3e067b58f70b2a9b1f01feba064322fa48d7d71c2bf5344758599377ee3f60018060003373ffffffffffffffffffffffffffffffffffffffff1673ffffffffffffffffffffffffffffffffffffffff1681526020019081526020016000205460405161052e929190610ef3565b60405180910390a26105986040518060600160405280603a8152602001611384603a9139600160003373ffffffffffffffffffffffffffffffffffffffff1673ffffffffffffffffffffffffffffffffffffffff1681526020019081526020016000205484610a4d565b6105dd565b6105dc6040518060400160405280601381526020017f596f752077617665642025642074696d6573210000000000000000000000000081525083610aec565b5b50505050565b60006106296040518060400160405280601681526020017f5765206861766520256420746f74616c20776176657300000000000000000000815250600080549050610aec565b600080549050905090565b60606000805480602002602001604051908101604052809291908181526020016000905b8282101561077c57838290600052602060002090600302016040518060600160405290816000820160009054906101000a900473ffffffffffffffffffffffffffffffffffffffff1673ffffffffffffffffffffffffffffffffffffffff1673ffffffffffffffffffffffffffffffffffffffff168152602001600182015481526020016002820180546106eb9061120b565b80601f01602080910402602001604051908101604052809291908181526020018280546107179061120b565b80156107645780601f1061073957610100808354040283529160200191610764565b820191906000526020600020905b81548152906001019060200180831161074757829003601f168201915b50505050508152505081526020019060010190610658565b50505050905090565b6060600260008373ffffffffffffffffffffffffffffffffffffffff1673ffffffffffffffffffffffffffffffffffffffff168152602001908152602001600020805480602002602001604051908101604052809291908181526020016000905b8282101561090a57838290600052602060002090600302016040518060600160405290816000820160009054906101000a900473ffffffffffffffffffffffffffffffffffffffff1673ffffffffffffffffffffffffffffffffffffffff1673ffffffffffffffffffffffffffffffffffffffff168152602001600182015481526020016002820180546108799061120b565b80601f01602080910402602001604051908101604052809291908181526020018280546108a59061120b565b80156108f25780601f106108c7576101008083540402835291602001916108f2565b820191906000526020600020905b8154815290600101906020018083116108d557829003601f168201915b505050505081525050815260200190600101906107e6565b505050509050919050565b6109ab816040516024016109299190610f1c565b6040516020818303038152906040527f41304fac000000000000000000000000000000000000000000000000000000007bffffffffffffffffffffffffffffffffffffffffffffffffffffffff19166020820180517bffffffffffffffffffffffffffffffffffffffffffffffffffffffff8381831617835250505050610b88565b50565b610a488383836040516024016109c693929190610f3e565b6040516020818303038152906040527f07c81217000000000000000000000000000000000000000000000000000000007bffffffffffffffffffffffffffffffffffffffffffffffffffffffff19166020820180517bffffffffffffffffffffffffffffffffffffffffffffffffffffffff8381831617835250505050610b88565b505050565b610ae7838383604051602401610a6593929190610fac565b6040516020818303038152906040527f969cdd03000000000000000000000000000000000000000000000000000000007bffffffffffffffffffffffffffffffffffffffffffffffffffffffff19166020820180517bffffffffffffffffffffffffffffffffffffffffffffffffffffffff8381831617835250505050610b88565b505050565b610b848282604051602401610b02929190610f7c565b6040516020818303038152906040527f9710a9d0000000000000000000000000000000000000000000000000000000007bffffffffffffffffffffffffffffffffffffffffffffffffffffffff19166020820180517bffffffffffffffffffffffffffffffffffffffffffffffffffffffff8381831617835250505050610b88565b5050565b60008151905060006a636f6e736f6c652e6c6f679050602083016000808483855afa5050505050565b828054610bbd9061120b565b90600052602060002090601f016020900481019282610bdf5760008555610c26565b82601f10610bf857805160ff1916838001178555610c26565b82800160010185558215610c26579182015b82811115610c25578251825591602001919060010190610c0a565b5b509050610c339190610c37565b5090565b5b80821115610c50576000816000905550600101610c38565b5090565b6000610c67610c628461105a565b611035565b905082815260208101848484011115610c7f57600080fd5b610c8a8482856111c9565b509392505050565b600081359050610ca18161136c565b92915050565b600082601f830112610cb857600080fd5b8135610cc8848260208601610c54565b91505092915050565b600060208284031215610ce357600080fd5b6000610cf184828501610c92565b91505092915050565b600060208284031215610d0c57600080fd5b600082013567ffffffffffffffff811115610d2657600080fd5b610d3284828501610ca7565b91505092915050565b6000610d478383610e63565b905092915050565b610d588161117b565b82525050565b610d678161117b565b82525050565b6000610d788261109b565b610d8281856110be565b935083602082028501610d948561108b565b8060005b85811015610dd05784840389528151610db18582610d3b565b9450610dbc836110b1565b925060208a01995050600181019050610d98565b50829750879550505050505092915050565b610deb816111b7565b82525050565b6000610dfc826110a6565b610e0681856110cf565b9350610e168185602086016111d8565b610e1f8161135b565b840191505092915050565b6000610e35826110a6565b610e3f81856110e0565b9350610e4f8185602086016111d8565b610e588161135b565b840191505092915050565b6000606083016000830151610e7b6000860182610d4f565b506020830151610e8e6020860182610eb3565b5060408301518482036040860152610ea68282610df1565b9150508091505092915050565b610ebc816111ad565b82525050565b610ecb816111ad565b82525050565b60006020820190508181036000830152610eeb8184610d6d565b905092915050565b6000604082019050610f086000830185610de2565b610f156020830184610ec2565b9392505050565b60006020820190508181036000830152610f368184610e2a565b905092915050565b60006060820190508181036000830152610f588186610e2a565b9050610f676020830185610d5e565b610f746040830184610ec2565b949350505050565b60006040820190508181036000830152610f968185610e2a565b9050610fa56020830184610ec2565b9392505050565b60006060820190508181036000830152610fc68186610e2a565b9050610fd56020830185610ec2565b610fe26040830184610ec2565b949350505050565b6000602082019050610fff6000830184610ec2565b92915050565b600060408201905061101a6000830185610ec2565b818103602083015261102c8184610e2a565b90509392505050565b600061103f611050565b905061104b828261123d565b919050565b6000604051905090565b600067ffffffffffffffff8211156110755761107461132c565b5b61107e8261135b565b9050602081019050919050565b6000819050602082019050919050565b600081519050919050565b600081519050919050565b6000602082019050919050565b600082825260208201905092915050565b600082825260208201905092915050565b600082825260208201905092915050565b60006110fc826111ad565b9150611107836111ad565b9250827fffffffffffffffffffffffffffffffffffffffffffffffffffffffffffffffff0382111561113c5761113b61129f565b5b828201905092915050565b6000611152826111ad565b915061115d836111ad565b9250828210156111705761116f61129f565b5b828203905092915050565b60006111868261118d565b9050919050565b600073ffffffffffffffffffffffffffffffffffffffff82169050919050565b6000819050919050565b60006111c2826111ad565b9050919050565b82818337600083830152505050565b60005b838110156111f65780820151818401526020810190506111db565b83811115611205576000848401525b50505050565b6000600282049050600182168061122357607f821691505b60208210811415611237576112366112fd565b5b50919050565b6112468261135b565b810181811067ffffffffffffffff821117156112655761126461132c565b5b80604052505050565b6000611279826111ad565b9150611284836111ad565b925082611294576112936112ce565b5b828206905092915050565b7f4e487b7100000000000000000000000000000000000000000000000000000000600052601160045260246000fd5b7f4e487b7100000000000000000000000000000000000000000000000000000000600052601260045260246000fd5b7f4e487b7100000000000000000000000000000000000000000000000000000000600052602260045260246000fd5b7f4e487b7100000000000000000000000000000000000000000000000000000000600052604160045260246000fd5b6000601f19601f8301169050919050565b6113758161117b565b811461138057600080fd5b5056fe436f6e6772617473212121204e6f7720796f75206861766520256420706f696e747320616e6420796f752077617665642025642074696d657321a2646970667358221220d64ff21531b7767837e0617169ff4509bf09c5b36bdcf3bb8f2944cfe7afad1864736f6c6343000804003357656c636f6d6520746f207468652077316c64726162623174205761766520506f7274616c21",
  "linkReferences": {},
  "deployedLinkReferences": {}
}