{
  "_format": "hh-sol-artifact-1",
  "contractName": "WavePortal2",
  "sourceName": "contracts/WavePortal2.sol",
  "abi": [
    {
      "inputs": [],
      "stateMutability": "payable",
      "type": "constructor"
    },
    {
      "anonymous": false,
      "inputs": [
        {
          "indexed": true,
          "internalType": "address",
          "name": "_user",
          "type": "address"
        },
        {
          "indexed": false,
          "internalType": "uint256",
          "name": "_pointsEarned",
          "type": "uint256"
        },
        {
          "indexed": false,
          "internalType": "uint256",
          "name": "_pointsTotal",
          "type": "uint256"
        }
      ],
      "name": "NewPoints",
      "type": "event"
    },
    {
      "anonymous": false,
      "inputs": [
        {
          "indexed": true,
          "internalType": "address",
          "name": "_from",
          "type": "address"
        },
        {
          "indexed": false,
          "internalType": "uint256",
          "name": "_timestamp",
          "type": "uint256"
        },
        {
          "indexed": false,
          "internalType": "string",
          "name": "_message",
          "type": "string"
        }
      ],
      "name": "NewWave",
      "type": "event"
    },
    {
      "inputs": [],
      "name": "getAllWaves",
      "outputs": [
        {
          "components": [
            {
              "internalType": "address",
              "name": "userAddress",
              "type": "address"
            },
            {
              "internalType": "uint256",
              "name": "timestamp",
              "type": "uint256"
            },
            {
              "internalType": "string",
              "name": "message",
              "type": "string"
            }
          ],
          "internalType": "struct WavePortal2.WaveLog[]",
          "name": "",
          "type": "tuple[]"
        }
      ],
      "stateMutability": "view",
      "type": "function"
    },
    {
      "inputs": [
        {
          "internalType": "address",
          "name": "addr",
          "type": "address"
        }
      ],
      "name": "getPointsForAddress",
      "outputs": [
        {
          "internalType": "uint256",
          "name": "",
          "type": "uint256"
        }
      ],
      "stateMutability": "view",
      "type": "function"
    },
    {
      "inputs": [],
      "name": "getTotalWaves",
      "outputs": [
        {
          "internalType": "uint256",
          "name": "",
          "type": "uint256"
        }
      ],
      "stateMutability": "view",
      "type": "function"
    },
    {
      "inputs": [
        {
          "internalType": "address",
          "name": "addr",
          "type": "address"
        }
      ],
      "name": "getWavesForAddress",
      "outputs": [
        {
          "components": [
            {
              "internalType": "address",
              "name": "userAddress",
              "type": "address"
            },
            {
              "internalType": "uint256",
              "name": "timestamp",
              "type": "uint256"
            },
            {
              "internalType": "string",
              "name": "message",
              "type": "string"
            }
          ],
          "internalType": "struct WavePortal2.WaveLog[]",
          "name": "",
          "type": "tuple[]"
        }
      ],
      "stateMutability": "view",
      "type": "function"
    },
    {
      "inputs": [
        {
          "internalType": "string",
          "name": "_message",
          "type": "string"
        }
      ],
      "name": "wave",
      "outputs": [],
      "stateMutability": "nonpayable",
      "type": "function"
    }
  ],
  "bytecode": "0x608060405262000033604051806060016040528060228152602001620018f7602291396200003960201b62000a9e1760201c565b620001cd565b620000d98160405160240162000050919062000146565b6040516020818303038152906040527f41304fac000000000000000000000000000000000000000000000000000000007bffffffffffffffffffffffffffffffffffffffffffffffffffffffff19166020820180517bffffffffffffffffffffffffffffffffffffffffffffffffffffffff8381831617835250505050620000dc60201b60201c565b50565b60008151905060006a636f6e736f6c652e6c6f679050602083016000808483855afa5050505050565b600062000112826200016a565b6200011e818562000175565b93506200013081856020860162000186565b6200013b81620001bc565b840191505092915050565b6000602082019050818103600083015262000162818462000105565b905092915050565b600081519050919050565b600082825260208201905092915050565b60005b83811015620001a657808201518184015260208101905062000189565b83811115620001b6576000848401525b50505050565b6000601f19601f8301169050919050565b61171a80620001dd6000396000f3fe608060405234801561001057600080fd5b50600436106100575760003560e01c806302f818911461005c578063449d46c01461008c5780639a2cdc08146100a8578063bd43a908146100c6578063d7dae55b146100e4575b600080fd5b61007660048036038101906100719190610e5a565b610114565b6040516100839190611231565b60405180910390f35b6100a660048036038101906100a19190610e83565b6101dc565b005b6100b061076c565b6040516100bd9190611231565b60405180910390f35b6100ce6107bd565b6040516100db91906110d8565b60405180910390f35b6100fe60048036038101906100f99190610e5a565b61090e565b60405161010b91906110d8565b60405180910390f35b60006101956040518060400160405280601981526020017f416464726573732025732068617320256420706f696e7473210000000000000081525083600160008673ffffffffffffffffffffffffffffffffffffffff1673ffffffffffffffffffffffffffffffffffffffff16815260200190815260200160002054610b37565b600160008373ffffffffffffffffffffffffffffffffffffffff1673ffffffffffffffffffffffffffffffffffffffff168152602001908152602001600020549050919050565b600060405180606001604052803373ffffffffffffffffffffffffffffffffffffffff168152602001428152602001838152509050600260003373ffffffffffffffffffffffffffffffffffffffff1673ffffffffffffffffffffffffffffffffffffffff16815260200190815260200160002081908060018154018082558091505060019003906000526020600020906003020160009091909190915060008201518160000160006101000a81548173ffffffffffffffffffffffffffffffffffffffff021916908373ffffffffffffffffffffffffffffffffffffffff1602179055506020820151816001015560408201518160020190805190602001906102e7929190610d3a565b505050600081908060018154018082558091505060019003906000526020600020906003020160009091909190915060008201518160000160006101000a81548173ffffffffffffffffffffffffffffffffffffffff021916908373ffffffffffffffffffffffffffffffffffffffff160217905550602082015181600101556040820151816002019080519060200190610383929190610d3a565b5050503373ffffffffffffffffffffffffffffffffffffffff167f5f7e16dc676677766a70e9c5628aa6c54ddb8b6e5188e2ae1e1f17f1ffbea71642846040516103ce92919061124c565b60405180910390a26000600260003373ffffffffffffffffffffffffffffffffffffffff1673ffffffffffffffffffffffffffffffffffffffff1681526020019081526020016000208054905090506000808054905090506000600a82844261043791906113f3565b61044191906113f3565b61044b919061151a565b14156107265760018060003373ffffffffffffffffffffffffffffffffffffffff1673ffffffffffffffffffffffffffffffffffffffff16815260200190815260200160002060008282546104a09190611343565b925050819055503373ffffffffffffffffffffffffffffffffffffffff167f22eb3e067b58f70b2a9b1f01feba064322fa48d7d71c2bf5344758599377ee3f60018060003373ffffffffffffffffffffffffffffffffffffffff1673ffffffffffffffffffffffffffffffffffffffff1681526020019081526020016000205460405161052e9291906110fa565b60405180910390a2600066038d7ea4c680009050600160003373ffffffffffffffffffffffffffffffffffffffff1673ffffffffffffffffffffffffffffffffffffffff168152602001908152602001600020548161058d9190611399565b90506105ce6040518060400160405280600d81526020017f7072697a65416d6f756e743a200000000000000000000000000000000000000081525082610bd6565b47811115610611576040517f08c379a000000000000000000000000000000000000000000000000000000000815260040161060890611211565b60405180910390fd5b60003373ffffffffffffffffffffffffffffffffffffffff1682604051610637906110c3565b60006040518083038185875af1925050503d8060008114610674576040519150601f19603f3d011682016040523d82523d6000602084013e610679565b606091505b50509050806106bd576040517f08c379a00000000000000000000000000000000000000000000000000000000081526004016106b4906111f1565b60405180910390fd5b61071f6040518060600160405280603a81526020016116ab603a9139600160003373ffffffffffffffffffffffffffffffffffffffff1673ffffffffffffffffffffffffffffffffffffffff1681526020019081526020016000205486610c72565b5050610766565b6107656040518060400160405280601381526020017f596f752077617665642025642074696d6573210000000000000000000000000081525083610bd6565b5b50505050565b60006107b26040518060400160405280601681526020017f5765206861766520256420746f74616c20776176657300000000000000000000815250600080549050610bd6565b600080549050905090565b60606000805480602002602001604051908101604052809291908181526020016000905b8282101561090557838290600052602060002090600302016040518060600160405290816000820160009054906101000a900473ffffffffffffffffffffffffffffffffffffffff1673ffffffffffffffffffffffffffffffffffffffff1673ffffffffffffffffffffffffffffffffffffffff16815260200160018201548152602001600282018054610874906114b7565b80601f01602080910402602001604051908101604052809291908181526020018280546108a0906114b7565b80156108ed5780601f106108c2576101008083540402835291602001916108ed565b820191906000526020600020905b8154815290600101906020018083116108d057829003601f168201915b505050505081525050815260200190600101906107e1565b50505050905090565b6060600260008373ffffffffffffffffffffffffffffffffffffffff1673ffffffffffffffffffffffffffffffffffffffff168152602001908152602001600020805480602002602001604051908101604052809291908181526020016000905b82821015610a9357838290600052602060002090600302016040518060600160405290816000820160009054906101000a900473ffffffffffffffffffffffffffffffffffffffff1673ffffffffffffffffffffffffffffffffffffffff1673ffffffffffffffffffffffffffffffffffffffff16815260200160018201548152602001600282018054610a02906114b7565b80601f0160208091040260200160405190810160405280929190818152602001828054610a2e906114b7565b8015610a7b5780601f10610a5057610100808354040283529160200191610a7b565b820191906000526020600020905b815481529060010190602001808311610a5e57829003601f168201915b5050505050815250508152602001906001019061096f565b505050509050919050565b610b3481604051602401610ab29190611123565b6040516020818303038152906040527f41304fac000000000000000000000000000000000000000000000000000000007bffffffffffffffffffffffffffffffffffffffffffffffffffffffff19166020820180517bffffffffffffffffffffffffffffffffffffffffffffffffffffffff8381831617835250505050610d11565b50565b610bd1838383604051602401610b4f93929190611145565b6040516020818303038152906040527f07c81217000000000000000000000000000000000000000000000000000000007bffffffffffffffffffffffffffffffffffffffffffffffffffffffff19166020820180517bffffffffffffffffffffffffffffffffffffffffffffffffffffffff8381831617835250505050610d11565b505050565b610c6e8282604051602401610bec929190611183565b6040516020818303038152906040527f9710a9d0000000000000000000000000000000000000000000000000000000007bffffffffffffffffffffffffffffffffffffffffffffffffffffffff19166020820180517bffffffffffffffffffffffffffffffffffffffffffffffffffffffff8381831617835250505050610d11565b5050565b610d0c838383604051602401610c8a939291906111b3565b6040516020818303038152906040527f969cdd03000000000000000000000000000000000000000000000000000000007bffffffffffffffffffffffffffffffffffffffffffffffffffffffff19166020820180517bffffffffffffffffffffffffffffffffffffffffffffffffffffffff8381831617835250505050610d11565b505050565b60008151905060006a636f6e736f6c652e6c6f679050602083016000808483855afa5050505050565b828054610d46906114b7565b90600052602060002090601f016020900481019282610d685760008555610daf565b82601f10610d8157805160ff1916838001178555610daf565b82800160010185558215610daf579182015b82811115610dae578251825591602001919060010190610d93565b5b509050610dbc9190610dc0565b5090565b5b80821115610dd9576000816000905550600101610dc1565b5090565b6000610df0610deb846112a1565b61127c565b905082815260208101848484011115610e0857600080fd5b610e13848285611475565b509392505050565b600081359050610e2a81611693565b92915050565b600082601f830112610e4157600080fd5b8135610e51848260208601610ddd565b91505092915050565b600060208284031215610e6c57600080fd5b6000610e7a84828501610e1b565b91505092915050565b600060208284031215610e9557600080fd5b600082013567ffffffffffffffff811115610eaf57600080fd5b610ebb84828501610e30565b91505092915050565b6000610ed08383611055565b905092915050565b610ee181611427565b82525050565b610ef081611427565b82525050565b6000610f01826112e2565b610f0b8185611305565b935083602082028501610f1d856112d2565b8060005b85811015610f595784840389528151610f3a8582610ec4565b9450610f45836112f8565b925060208a01995050600181019050610f21565b50829750879550505050505092915050565b610f7481611463565b82525050565b6000610f85826112ed565b610f8f8185611321565b9350610f9f818560208601611484565b610fa881611607565b840191505092915050565b6000610fbe826112ed565b610fc88185611332565b9350610fd8818560208601611484565b610fe181611607565b840191505092915050565b6000610ff9601a83611332565b915061100482611618565b602082019050919050565b600061101c602483611332565b915061102782611641565b604082019050919050565b600061103f600083611316565b915061104a82611690565b600082019050919050565b600060608301600083015161106d6000860182610ed8565b50602083015161108060208601826110a5565b50604083015184820360408601526110988282610f7a565b9150508091505092915050565b6110ae81611459565b82525050565b6110bd81611459565b82525050565b60006110ce82611032565b9150819050919050565b600060208201905081810360008301526110f28184610ef6565b905092915050565b600060408201905061110f6000830185610f6b565b61111c60208301846110b4565b9392505050565b6000602082019050818103600083015261113d8184610fb3565b905092915050565b6000606082019050818103600083015261115f8186610fb3565b905061116e6020830185610ee7565b61117b60408301846110b4565b949350505050565b6000604082019050818103600083015261119d8185610fb3565b90506111ac60208301846110b4565b9392505050565b600060608201905081810360008301526111cd8186610fb3565b90506111dc60208301856110b4565b6111e960408301846110b4565b949350505050565b6000602082019050818103600083015261120a81610fec565b9050919050565b6000602082019050818103600083015261122a8161100f565b9050919050565b600060208201905061124660008301846110b4565b92915050565b600060408201905061126160008301856110b4565b81810360208301526112738184610fb3565b90509392505050565b6000611286611297565b905061129282826114e9565b919050565b6000604051905090565b600067ffffffffffffffff8211156112bc576112bb6115d8565b5b6112c582611607565b9050602081019050919050565b6000819050602082019050919050565b600081519050919050565b600081519050919050565b6000602082019050919050565b600082825260208201905092915050565b600081905092915050565b600082825260208201905092915050565b600082825260208201905092915050565b600061134e82611459565b915061135983611459565b9250827fffffffffffffffffffffffffffffffffffffffffffffffffffffffffffffffff0382111561138e5761138d61154b565b5b828201905092915050565b60006113a482611459565b91506113af83611459565b9250817fffffffffffffffffffffffffffffffffffffffffffffffffffffffffffffffff04831182151516156113e8576113e761154b565b5b828202905092915050565b60006113fe82611459565b915061140983611459565b92508282101561141c5761141b61154b565b5b828203905092915050565b600061143282611439565b9050919050565b600073ffffffffffffffffffffffffffffffffffffffff82169050919050565b6000819050919050565b600061146e82611459565b9050919050565b82818337600083830152505050565b60005b838110156114a2578082015181840152602081019050611487565b838111156114b1576000848401525b50505050565b600060028204905060018216806114cf57607f821691505b602082108114156114e3576114e26115a9565b5b50919050565b6114f282611607565b810181811067ffffffffffffffff82111715611511576115106115d8565b5b80604052505050565b600061152582611459565b915061153083611459565b9250826115405761153f61157a565b5b828206905092915050565b7f4e487b7100000000000000000000000000000000000000000000000000000000600052601160045260246000fd5b7f4e487b7100000000000000000000000000000000000000000000000000000000600052601260045260246000fd5b7f4e487b7100000000000000000000000000000000000000000000000000000000600052602260045260246000fd5b7f4e487b7100000000000000000000000000000000000000000000000000000000600052604160045260246000fd5b6000601f19601f8301169050919050565b7f4661696c656420746f207061796f757420746865207072697a65000000000000600082015250565b7f4e6f7420656e6f756768206d6f6e657920746f207061796f757420746865207060008201527f72697a6500000000000000000000000000000000000000000000000000000000602082015250565b50565b61169c81611427565b81146116a757600080fd5b5056fe436f6e6772617473212121204e6f7720796f75206861766520256420706f696e747320616e6420796f752077617665642025642074696d657321a26469706673582212204f163b5b321fbcfeb659f9070f8ebe8ef0fcc007eb369143cfb4f1ef7a068e6364736f6c6343000804003357656c636f6d6520746f207468652077316c64726162623174205761766520203221",
  "linkReferences": {},
  "deployedLinkReferences": {}
}