{
  "_format": "hh-sol-artifact-1",
  "contractName": "WavePortal2",
  "sourceName": "contracts/WavePortal2.sol",
  "abi": [
    {
      "inputs": [],
      "stateMutability": "payable",
      "type": "constructor"
    },
    {
      "anonymous": false,
      "inputs": [
        {
          "indexed": true,
          "internalType": "address",
          "name": "_user",
          "type": "address"
        },
        {
          "indexed": false,
          "internalType": "uint256",
          "name": "_pointsEarned",
          "type": "uint256"
        },
        {
          "indexed": false,
          "internalType": "uint256",
          "name": "_pointsTotal",
          "type": "uint256"
        }
      ],
      "name": "NewPoints",
      "type": "event"
    },
    {
      "anonymous": false,
      "inputs": [
        {
          "indexed": true,
          "internalType": "address",
          "name": "_from",
          "type": "address"
        },
        {
          "indexed": false,
          "internalType": "uint256",
          "name": "_timestamp",
          "type": "uint256"
        },
        {
          "indexed": false,
          "internalType": "string",
          "name": "_message",
          "type": "string"
        }
      ],
      "name": "NewWave",
      "type": "event"
    },
    {
      "inputs": [],
      "name": "getAllWaves",
      "outputs": [
        {
          "components": [
            {
              "internalType": "address",
              "name": "userAddress",
              "type": "address"
            },
            {
              "internalType": "uint256",
              "name": "timestamp",
              "type": "uint256"
            },
            {
              "internalType": "string",
              "name": "message",
              "type": "string"
            }
          ],
          "internalType": "struct WavePortal2.WaveLog[]",
          "name": "",
          "type": "tuple[]"
        }
      ],
      "stateMutability": "view",
      "type": "function"
    },
    {
      "inputs": [
        {
          "internalType": "address",
          "name": "addr",
          "type": "address"
        }
      ],
      "name": "getPointsForAddress",
      "outputs": [
        {
          "internalType": "uint256",
          "name": "",
          "type": "uint256"
        }
      ],
      "stateMutability": "view",
      "type": "function"
    },
    {
      "inputs": [],
      "name": "getTotalWaves",
      "outputs": [
        {
          "internalType": "uint256",
          "name": "",
          "type": "uint256"
        }
      ],
      "stateMutability": "view",
      "type": "function"
    },
    {
      "inputs": [
        {
          "internalType": "address",
          "name": "addr",
          "type": "address"
        }
      ],
      "name": "getWavesForAddress",
      "outputs": [
        {
          "components": [
            {
              "internalType": "address",
              "name": "userAddress",
              "type": "address"
            },
            {
              "internalType": "uint256",
              "name": "timestamp",
              "type": "uint256"
            },
            {
              "internalType": "string",
              "name": "message",
              "type": "string"
            }
          ],
          "internalType": "struct WavePortal2.WaveLog[]",
          "name": "",
          "type": "tuple[]"
        }
      ],
      "stateMutability": "view",
      "type": "function"
    },
    {
      "inputs": [
        {
          "internalType": "uint256",
          "name": "start",
          "type": "uint256"
        },
        {
          "internalType": "uint256",
          "name": "count",
          "type": "uint256"
        }
      ],
      "name": "getWavesSlice",
      "outputs": [
        {
          "components": [
            {
              "internalType": "address",
              "name": "userAddress",
              "type": "address"
            },
            {
              "internalType": "uint256",
              "name": "timestamp",
              "type": "uint256"
            },
            {
              "internalType": "string",
              "name": "message",
              "type": "string"
            }
          ],
          "internalType": "struct WavePortal2.WaveLog[]",
          "name": "",
          "type": "tuple[]"
        }
      ],
      "stateMutability": "view",
      "type": "function"
    },
    {
      "inputs": [
        {
          "internalType": "string",
          "name": "_message",
          "type": "string"
        }
      ],
      "name": "wave",
      "outputs": [],
      "stateMutability": "nonpayable",
      "type": "function"
    }
  ],
  "bytecode": "0x60806040526200003360405180606001604052806022815260200162002155602291396200003960201b62000fd21760201c565b620001cd565b620000d98160405160240162000050919062000146565b6040516020818303038152906040527f41304fac000000000000000000000000000000000000000000000000000000007bffffffffffffffffffffffffffffffffffffffffffffffffffffffff19166020820180517bffffffffffffffffffffffffffffffffffffffffffffffffffffffff8381831617835250505050620000dc60201b60201c565b50565b60008151905060006a636f6e736f6c652e6c6f679050602083016000808483855afa5050505050565b600062000112826200016a565b6200011e818562000175565b93506200013081856020860162000186565b6200013b81620001bc565b840191505092915050565b6000602082019050818103600083015262000162818462000105565b905092915050565b600081519050919050565b600082825260208201905092915050565b60005b83811015620001a657808201518184015260208101905062000189565b83811115620001b6576000848401525b50505050565b6000601f19601f8301169050919050565b611f7880620001dd6000396000f3fe608060405234801561001057600080fd5b50600436106100625760003560e01c806302f8189114610067578063288b2e7e14610097578063449d46c0146100c75780639a2cdc08146100e3578063bd43a90814610101578063d7dae55b1461011f575b600080fd5b610081600480360381019061007c9190611515565b61014f565b60405161008e91906119e0565b60405180910390f35b6100b160048036038101906100ac919061157f565b610217565b6040516100be91906117f2565b60405180910390f35b6100e160048036038101906100dc919061153e565b6104a6565b005b6100eb610ca0565b6040516100f891906119e0565b60405180910390f35b610109610cf1565b60405161011691906117f2565b60405180910390f35b61013960048036038101906101349190611515565b610e42565b60405161014691906117f2565b60405180910390f35b60006101d06040518060400160405280601981526020017f416464726573732025732068617320256420706f696e7473210000000000000081525083600260008673ffffffffffffffffffffffffffffffffffffffff1673ffffffffffffffffffffffffffffffffffffffff1681526020019081526020016000205461106b565b600260008373ffffffffffffffffffffffffffffffffffffffff1673ffffffffffffffffffffffffffffffffffffffff168152602001908152602001600020549050919050565b6060600180549050828461022b9190611af2565b111561026c576040517f08c379a000000000000000000000000000000000000000000000000000000000815260040161026390611980565b60405180910390fd5b60008267ffffffffffffffff8111156102ae577f4e487b7100000000000000000000000000000000000000000000000000000000600052604160045260246000fd5b6040519080825280602002602001820160405280156102e757816020015b6102d46113a9565b8152602001906001900390816102cc5790505b50905060005b8385101561049b576001858154811061032f577f4e487b7100000000000000000000000000000000000000000000000000000000600052603260045260246000fd5b90600052602060002090600302016040518060600160405290816000820160009054906101000a900473ffffffffffffffffffffffffffffffffffffffff1673ffffffffffffffffffffffffffffffffffffffff1673ffffffffffffffffffffffffffffffffffffffff168152602001600182015481526020016002820180546103b890611c66565b80601f01602080910402602001604051908101604052809291908181526020018280546103e490611c66565b80156104315780601f1061040657610100808354040283529160200191610431565b820191906000526020600020905b81548152906001019060200180831161041457829003601f168201915b50505050508152505082828061044690611cc9565b93508151811061047f577f4e487b7100000000000000000000000000000000000000000000000000000000600052603260045260246000fd5b60200260200101819052508461049490611cc9565b94506102ed565b819250505092915050565b6104e66040518060400160405280601381526020017f2573207761766564206d65737361676520257300000000000000000000000000815250338361110a565b600060405180606001604052803373ffffffffffffffffffffffffffffffffffffffff168152602001428152602001838152509050600360003373ffffffffffffffffffffffffffffffffffffffff1673ffffffffffffffffffffffffffffffffffffffff16815260200190815260200160002081908060018154018082558091505060019003906000526020600020906003020160009091909190915060008201518160000160006101000a81548173ffffffffffffffffffffffffffffffffffffffff021916908373ffffffffffffffffffffffffffffffffffffffff1602179055506020820151816001015560408201518160020190805190602001906105f19291906113e0565b505050600181908060018154018082558091505060019003906000526020600020906003020160009091909190915060008201518160000160006101000a81548173ffffffffffffffffffffffffffffffffffffffff021916908373ffffffffffffffffffffffffffffffffffffffff16021790555060208201518160010155604082015181600201908051906020019061068d9291906113e0565b5050503373ffffffffffffffffffffffffffffffffffffffff167f5f7e16dc676677766a70e9c5628aa6c54ddb8b6e5188e2ae1e1f17f1ffbea71642846040516106d89291906119fb565b60405180910390a26000600360003373ffffffffffffffffffffffffffffffffffffffff1673ffffffffffffffffffffffffffffffffffffffff168152602001908152602001600020805490509050600060018054905090506000606460005442446107449190611af2565b61074e9190611af2565b6107589190611d12565b90506107996040518060400160405280601081526020017f4c75636b79206e756d6265723a20257300000000000000000000000000000000815250826111a9565b806000819055506032811015610b3c576107e86040518060400160405280600781526020017f257320776f6e210000000000000000000000000000000000000000000000000081525033611245565b6001600260003373ffffffffffffffffffffffffffffffffffffffff1673ffffffffffffffffffffffffffffffffffffffff16815260200190815260200160002060008282546108389190611af2565b925050819055506108bd6040518060400160405280600c81526020017f4e657720506f696e74733a200000000000000000000000000000000000000000815250600260003373ffffffffffffffffffffffffffffffffffffffff1673ffffffffffffffffffffffffffffffffffffffff168152602001908152602001600020546111a9565b3373ffffffffffffffffffffffffffffffffffffffff167f22eb3e067b58f70b2a9b1f01feba064322fa48d7d71c2bf5344758599377ee3f6001600260003373ffffffffffffffffffffffffffffffffffffffff1673ffffffffffffffffffffffffffffffffffffffff16815260200190815260200160002054604051610945929190611814565b60405180910390a26000655af3107a40009050600260003373ffffffffffffffffffffffffffffffffffffffff1673ffffffffffffffffffffffffffffffffffffffff16815260200190815260200160002054816109a39190611b48565b90506109e46040518060400160405280600d81526020017f7072697a65416d6f756e743a2000000000000000000000000000000000000000815250826111a9565b47811115610a27576040517f08c379a0000000000000000000000000000000000000000000000000000000008152600401610a1e906119c0565b60405180910390fd5b60003373ffffffffffffffffffffffffffffffffffffffff1682604051610a4d906117dd565b60006040518083038185875af1925050503d8060008114610a8a576040519150601f19603f3d011682016040523d82523d6000602084013e610a8f565b606091505b5050905080610ad3576040517f08c379a0000000000000000000000000000000000000000000000000000000008152600401610aca906119a0565b60405180910390fd5b610b356040518060600160405280603a8152602001611f09603a9139600260003373ffffffffffffffffffffffffffffffffffffffff1673ffffffffffffffffffffffffffffffffffffffff16815260200190815260200160002054876112e1565b5050610c99565b610b7a6040518060400160405280602081526020017f556e6c75636b792e2e2e20746869732077696c6c20636f737420796f752e2e2e815250610fd2565b6000600260003373ffffffffffffffffffffffffffffffffffffffff1673ffffffffffffffffffffffffffffffffffffffff168152602001908152602001600020541115610c98576001600260003373ffffffffffffffffffffffffffffffffffffffff1673ffffffffffffffffffffffffffffffffffffffff1681526020019081526020016000206000828254610c129190611ba2565b92505081905550610c976040518060400160405280600e81526020017f4e657720506f696e74733a202573000000000000000000000000000000000000815250600260003373ffffffffffffffffffffffffffffffffffffffff1673ffffffffffffffffffffffffffffffffffffffff168152602001908152602001600020546111a9565b5b5b5050505050565b6000610ce66040518060400160405280601681526020017f5765206861766520256420746f74616c207761766573000000000000000000008152506001805490506111a9565b600180549050905090565b60606001805480602002602001604051908101604052809291908181526020016000905b82821015610e3957838290600052602060002090600302016040518060600160405290816000820160009054906101000a900473ffffffffffffffffffffffffffffffffffffffff1673ffffffffffffffffffffffffffffffffffffffff1673ffffffffffffffffffffffffffffffffffffffff16815260200160018201548152602001600282018054610da890611c66565b80601f0160208091040260200160405190810160405280929190818152602001828054610dd490611c66565b8015610e215780601f10610df657610100808354040283529160200191610e21565b820191906000526020600020905b815481529060010190602001808311610e0457829003601f168201915b50505050508152505081526020019060010190610d15565b50505050905090565b6060600360008373ffffffffffffffffffffffffffffffffffffffff1673ffffffffffffffffffffffffffffffffffffffff168152602001908152602001600020805480602002602001604051908101604052809291908181526020016000905b82821015610fc757838290600052602060002090600302016040518060600160405290816000820160009054906101000a900473ffffffffffffffffffffffffffffffffffffffff1673ffffffffffffffffffffffffffffffffffffffff1673ffffffffffffffffffffffffffffffffffffffff16815260200160018201548152602001600282018054610f3690611c66565b80601f0160208091040260200160405190810160405280929190818152602001828054610f6290611c66565b8015610faf5780601f10610f8457610100808354040283529160200191610faf565b820191906000526020600020905b815481529060010190602001808311610f9257829003601f168201915b50505050508152505081526020019060010190610ea3565b505050509050919050565b61106881604051602401610fe6919061183d565b6040516020818303038152906040527f41304fac000000000000000000000000000000000000000000000000000000007bffffffffffffffffffffffffffffffffffffffffffffffffffffffff19166020820180517bffffffffffffffffffffffffffffffffffffffffffffffffffffffff8381831617835250505050611380565b50565b611105838383604051602401611083939291906118d4565b6040516020818303038152906040527f07c81217000000000000000000000000000000000000000000000000000000007bffffffffffffffffffffffffffffffffffffffffffffffffffffffff19166020820180517bffffffffffffffffffffffffffffffffffffffffffffffffffffffff8381831617835250505050611380565b505050565b6111a48383836040516024016111229392919061188f565b6040516020818303038152906040527fe0e9ad4f000000000000000000000000000000000000000000000000000000007bffffffffffffffffffffffffffffffffffffffffffffffffffffffff19166020820180517bffffffffffffffffffffffffffffffffffffffffffffffffffffffff8381831617835250505050611380565b505050565b61124182826040516024016111bf929190611912565b6040516020818303038152906040527f9710a9d0000000000000000000000000000000000000000000000000000000007bffffffffffffffffffffffffffffffffffffffffffffffffffffffff19166020820180517bffffffffffffffffffffffffffffffffffffffffffffffffffffffff8381831617835250505050611380565b5050565b6112dd828260405160240161125b92919061185f565b6040516020818303038152906040527f319af333000000000000000000000000000000000000000000000000000000007bffffffffffffffffffffffffffffffffffffffffffffffffffffffff19166020820180517bffffffffffffffffffffffffffffffffffffffffffffffffffffffff8381831617835250505050611380565b5050565b61137b8383836040516024016112f993929190611942565b6040516020818303038152906040527f969cdd03000000000000000000000000000000000000000000000000000000007bffffffffffffffffffffffffffffffffffffffffffffffffffffffff19166020820180517bffffffffffffffffffffffffffffffffffffffffffffffffffffffff8381831617835250505050611380565b505050565b60008151905060006a636f6e736f6c652e6c6f679050602083016000808483855afa5050505050565b6040518060600160405280600073ffffffffffffffffffffffffffffffffffffffff16815260200160008152602001606081525090565b8280546113ec90611c66565b90600052602060002090601f01602090048101928261140e5760008555611455565b82601f1061142757805160ff1916838001178555611455565b82800160010185558215611455579182015b82811115611454578251825591602001919060010190611439565b5b5090506114629190611466565b5090565b5b8082111561147f576000816000905550600101611467565b5090565b600061149661149184611a50565b611a2b565b9050828152602081018484840111156114ae57600080fd5b6114b9848285611c24565b509392505050565b6000813590506114d081611eda565b92915050565b600082601f8301126114e757600080fd5b81356114f7848260208601611483565b91505092915050565b60008135905061150f81611ef1565b92915050565b60006020828403121561152757600080fd5b6000611535848285016114c1565b91505092915050565b60006020828403121561155057600080fd5b600082013567ffffffffffffffff81111561156a57600080fd5b611576848285016114d6565b91505092915050565b6000806040838503121561159257600080fd5b60006115a085828601611500565b92505060206115b185828601611500565b9150509250929050565b60006115c7838361176f565b905092915050565b6115d881611bd6565b82525050565b6115e781611bd6565b82525050565b60006115f882611a91565b6116028185611ab4565b93508360208202850161161485611a81565b8060005b85811015611650578484038952815161163185826115bb565b945061163c83611aa7565b925060208a01995050600181019050611618565b50829750879550505050505092915050565b61166b81611c12565b82525050565b600061167c82611a9c565b6116868185611ad0565b9350611696818560208601611c33565b61169f81611dff565b840191505092915050565b60006116b582611a9c565b6116bf8185611ae1565b93506116cf818560208601611c33565b6116d881611dff565b840191505092915050565b60006116f0602683611ae1565b91506116fb82611e10565b604082019050919050565b6000611713601a83611ae1565b915061171e82611e5f565b602082019050919050565b6000611736602483611ae1565b915061174182611e88565b604082019050919050565b6000611759600083611ac5565b915061176482611ed7565b600082019050919050565b600060608301600083015161178760008601826115cf565b50602083015161179a60208601826117bf565b50604083015184820360408601526117b28282611671565b9150508091505092915050565b6117c881611c08565b82525050565b6117d781611c08565b82525050565b60006117e88261174c565b9150819050919050565b6000602082019050818103600083015261180c81846115ed565b905092915050565b60006040820190506118296000830185611662565b61183660208301846117ce565b9392505050565b6000602082019050818103600083015261185781846116aa565b905092915050565b6000604082019050818103600083015261187981856116aa565b905061188860208301846115de565b9392505050565b600060608201905081810360008301526118a981866116aa565b90506118b860208301856115de565b81810360408301526118ca81846116aa565b9050949350505050565b600060608201905081810360008301526118ee81866116aa565b90506118fd60208301856115de565b61190a60408301846117ce565b949350505050565b6000604082019050818103600083015261192c81856116aa565b905061193b60208301846117ce565b9392505050565b6000606082019050818103600083015261195c81866116aa565b905061196b60208301856117ce565b61197860408301846117ce565b949350505050565b60006020820190508181036000830152611999816116e3565b9050919050565b600060208201905081810360008301526119b981611706565b9050919050565b600060208201905081810360008301526119d981611729565b9050919050565b60006020820190506119f560008301846117ce565b92915050565b6000604082019050611a1060008301856117ce565b8181036020830152611a2281846116aa565b90509392505050565b6000611a35611a46565b9050611a418282611c98565b919050565b6000604051905090565b600067ffffffffffffffff821115611a6b57611a6a611dd0565b5b611a7482611dff565b9050602081019050919050565b6000819050602082019050919050565b600081519050919050565b600081519050919050565b6000602082019050919050565b600082825260208201905092915050565b600081905092915050565b600082825260208201905092915050565b600082825260208201905092915050565b6000611afd82611c08565b9150611b0883611c08565b9250827fffffffffffffffffffffffffffffffffffffffffffffffffffffffffffffffff03821115611b3d57611b3c611d43565b5b828201905092915050565b6000611b5382611c08565b9150611b5e83611c08565b9250817fffffffffffffffffffffffffffffffffffffffffffffffffffffffffffffffff0483118215151615611b9757611b96611d43565b5b828202905092915050565b6000611bad82611c08565b9150611bb883611c08565b925082821015611bcb57611bca611d43565b5b828203905092915050565b6000611be182611be8565b9050919050565b600073ffffffffffffffffffffffffffffffffffffffff82169050919050565b6000819050919050565b6000611c1d82611c08565b9050919050565b82818337600083830152505050565b60005b83811015611c51578082015181840152602081019050611c36565b83811115611c60576000848401525b50505050565b60006002820490506001821680611c7e57607f821691505b60208210811415611c9257611c91611da1565b5b50919050565b611ca182611dff565b810181811067ffffffffffffffff82111715611cc057611cbf611dd0565b5b80604052505050565b6000611cd482611c08565b91507fffffffffffffffffffffffffffffffffffffffffffffffffffffffffffffffff821415611d0757611d06611d43565b5b600182019050919050565b6000611d1d82611c08565b9150611d2883611c08565b925082611d3857611d37611d72565b5b828206905092915050565b7f4e487b7100000000000000000000000000000000000000000000000000000000600052601160045260246000fd5b7f4e487b7100000000000000000000000000000000000000000000000000000000600052601260045260246000fd5b7f4e487b7100000000000000000000000000000000000000000000000000000000600052602260045260246000fd5b7f4e487b7100000000000000000000000000000000000000000000000000000000600052604160045260246000fd5b6000601f19601f8301169050919050565b7f6765745761766573536c6963653a20737461727420616e6420636f756e74206960008201527f6e76616c69640000000000000000000000000000000000000000000000000000602082015250565b7f4661696c656420746f207061796f757420746865207072697a65000000000000600082015250565b7f4e6f7420656e6f756768206d6f6e657920746f207061796f757420746865207060008201527f72697a6500000000000000000000000000000000000000000000000000000000602082015250565b50565b611ee381611bd6565b8114611eee57600080fd5b50565b611efa81611c08565b8114611f0557600080fd5b5056fe436f6e6772617473212121204e6f7720796f75206861766520256420706f696e747320616e6420796f752077617665642025642074696d657321a26469706673582212202cb502affbec18a8bf7c30216e98423dd2a14a1e2867026de04c0559c677cbc464736f6c6343000804003357656c636f6d6520746f207468652077316c64726162623174205761766520203221",
  "linkReferences": {},
  "deployedLinkReferences": {}
}